:400000000010002011000000B5020000B502000080B500AF00F07AF980B500AF134B134A12688021C9020A431A60182001F0C0F80E4B0E4A11680E4A0A401A600D4B0E4AA7
:400040001A600E4B10221A600D4B20221A600D4B802212061A600C4B0C4A1A600C4B0D4A1A600D4B00221A60BD4680BD00010B40FFFFFBFF04010B40060000800802024078
:400080000C02024008010B40000002401000008040000240CF0000800C020B4080B582B000AF72B6FB1D00221A7023E0FB1D1A78131C5B009B185B00474A9B183B603B68D7
:4000C0001A78597809020A43997809040A43DB781B0613431A1C3B6819795B791B020B439BB2101C191C00F03BFCFB1D1A78FB1D01321A70FB1D1B78012BD7D9374A384B87
:40010000101C191C00F03CFC364B992212041A60354B364A1A60364B99221A60354B00221A60354B992212041A60344B992212041A60334BC02292051A60324B99221204CA
:400140001A60314BAA2212041A60304B992212041A602F4B2E4A1278D2B202210A43D2B21A702C4B2B4A1278D2B23C218A43D2B214210A43D2B21A70254B254A1278D2B2C4
:4001800016210A43D2B21A70234BE0221A60234B234A1A60234B20221A60234B7F221A60224B234A1A60234B234A1A60234B78221A60234B234A1A60234B02221A60234BC1
:4001C00031221A60224B02221A60FFF725FF00F017FCBD4602B080BD2C2200003822000054220000000001400400014000000303100001400C00014000500F4010500F4082
:4002000018500F4020500F4024500F4030500F4000700F4001700F4000000440080004400010DB00180004400001044008010440B6331B0008020440DB0600000003044054
:40024000080304400092040000040440080404401804044010B5064C2378002B07D1054B002B02D0044800E000BF0123237010BD48010020000000001021000008B5084B86
:40028000002B03D00748084900E000BF07480368002B03D0064B002B00D0984708BDC04600000000102100004C010020C80000200000000080B500AFFEE7C04680B584B095
:4002C00000AF78600F4B1A687B68D3181A1C0E4BD31A802B09DC0B4B1B68FB60094B1A687B68D218074B1A6007E001F0F3F9031C0C221A6001235B42FB60FB68181CBD46DD
:4003000004B080BDCC0000203802002080B586B000AF224B7B61224B3B61204B7B6135E03B691B68FB603B695B68BB603B699B683B6000237B600CE0FB681A68BB681A600C
:40034000BB680433BB60FB680433FB607B6804337B607A683B689A42EED13B69DB683B6000237B6008E0BB6800221A60BB680433BB607B6804337B607A683B689A42F2D149
:400380003B6910333B617B69013B7B617B69002BC6D101F0A5F900F061F8FEE7010000000C25000080B582B000AF00237B600FE07B68032B04D8104B7A689200D35800E05F
:4003C0000E4B0F4A796889008B507B6801337B607B682F2BECD9FFF761FE0A4B00221A608023DB058022D205126801210A431A60BD4602B080BDC04600000000B5020000BE
:4004000000000020C000002080B582B000AF00F099FB021CFB1D1A700EE00C4B1B785A1CD1B20A4A11700A4AF91D0978D15400F089FB021CFB1D1A70FB1D1B78002BECD1E5
:40044000044B054A1A60BD4602B080BD6401002084010020C00F0640FFFF000080B500AF1E4B181C00F0F8FA00F0A8F900F0E2FA00F028FC00F0B8FD62B6012000F010FE85
:40048000012000F059FE0A2001F032F8144B1B78002B1DD0124B1B78013B124AD35C0A2B06D00F4B1B78013B0E4AD35C0D2B14D10B4B1B780B4A101C191C00F017F8084B05
:4004C0001B78084A0021D154054B00221A70DAE7054B181C00F076FCD5E7D4E70904000064010020840100201421000090B5CBB002AF78600A1CA44B90204000C019C31849
:400500001A70A14B90214900C919CB181B787A68D31800221A7079689C4A862464003B19081C111C1A1C01F073F9031C8E204000C0190360964A862149007B180020111C74
:400540001A1C01F065F9031C8C225200D21913608C246400E4192368181C01F0B5F8031C8A204000C01903608E214900C9190B68181C01F0A9F8031C88225200D21913603A
:4005800088246400E4192368002B0CD18A204000C0190368002B06D17E4B181C00F0F4FA00F09CF9ECE088214900C9190B680A2B2ED18A225200D2191368012B10D1764B92
:4005C000181C00F0E1FA002000F0B6FD002000F08DFD012000F064FD012000F061FD16E08A246400E4192368013310D16B4B181C00F0CAFA012000F09FFD012000F076FD4A
:40060000002000F04DFD002000F04AFDB8E0B7E088204000C01903680B2B0BD088214900C9190B680C2B05D088225200D21913680D2B33D188246400E41923680B2B0CD101
:40064000574B181C00F0A0FA8A204000C0190368DBB2181C00F042FC1FE088214900C9190B680C2B0CD14F4B181C00F08DFA8A225200D2191368DBB2181C00F055FC0CE00C
:40068000494B181C00F080FA8A246400E4192368DBB2181C00F064FF72E071E08A204000C0190368FF2B18D1404B88214900C9190A689200D058391C0C313D4A88246400C2
:4006C000E41923680090081CFF2101F041F83B1C0C33181C00F058FA52E08A204000C01903683F2B37DC8A214900C9190B681A1C3F3230DB2D4B88246400E41922689200EF
:400700008A204000C0190168D1508A214900C9190B68181C00F0CCF8031C88246400E4192268101C191C00F05FF8391C0C31214A88204000C01903688A246400E41920681D
:400740000090081CFF2101F003F83B1C0C33181C00F01AFA14E0391C0C31174A88204000C01903688A246400E41920680090081CFF2100F0EDFF3B1C0C33181C00F004FAD9
:40078000BD4649B090BDC046E3FEFFFF1C210000202100002421000048210000582100006821000074210000842100000402002094210000B4210000D421000080B500AF1A
:4007C000002000F019FB002000F0F8F9002000F03FFA002000F016FA002000F033FB002000F056FBBD4680BD80B5C4B002AF78603960391C08312C4A7B6838680090081C86
:40080000FF2100F0A5FF3B1C0833181C00F0BCF97B68052B45D87B689A00244BD3181B689F46FFF7CBFF012000F0E6FA0A2000F05FFE3B687F33181C00F05AFA31E0FFF72E
:40084000BDFF012000F0BAF90A2000F051FE3B687F33181C00F04CFA23E0FFF7AFFF012000F0F6F90A2000F043FE3B687F33181C00F03EFA15E0FFF7A1FF012000F0C2F9C6
:400880000A2000F035FE3B687F33181C00F030FA07E0FFF793FF3B68DBB2181C00F070FEC046BD4642B080BDF82100001422000080B582B000AF78607B683F2B01DD3F2315
:4008C0007B607B681A1C3F3202DA3F235B427B607B684033181CBD4602B080BD80B500AFFFF76CFF012000F087FA0A2000F000FE002000F0FDF9002000F07EFA012000F0D3
:400900005DF90A2000F0F4FD002000F0F1F9002000F054F9012000F09BF90A2000F0E8FD002000F0E5F9002000F092F9012000F069F90A2000F0DCFD002000F0D9F900206A
:4009400000F060F9012000F07DFA0A2000F0D0FD002000F0CDF9002000F074FABD4680BD80B582B000AF786039607A683B68101C00211A1C00F0E3FEBD4602B080BDC046D3
:4009800080B586B000AF7860396000233B6100237B612EE07B699B007A68D3181B68BB603B1C0F33BA681A70BB68FF229343BB6017E03B695B003A68D3181B781A1CBB680D
:4009C000D3183A69520039688A1852781A703B6901333B613B1C0F331A783B1C0F33013A1A703B1C0F331B78002BE2D17B6901337B617B69062BCDD9BD4606B080BDC046CE
:400A000080B500AFBD4680BD80B500AF00F038F8BD4680BD80B500AF054B054A1268802109060A431A6000F023F8BD4680BDC0460000064080B500AF064B1B78002B04D17B
:400A4000FFF7E2FF034B01221A70FFF7E3FFBD4680BDC0466801002080B582B000AF7860024B7A681A60BD4602B080BD6C01002080B500AF0A2000F005FDBD4680BDC046A1
:400A800080B500AF1D4B1E4A1A601E4B00221A601D4B01221A601D4B1D4A1A601D4B07221A601D4B00221A601C4B01221A601C4B174A1A601B4B00221A600A2000F0F8FC50
:400AC0000A20032100F08AFC174B0A20191C00F05FFC164B00221A60154B00221A60154B00221A60144B00221A60144B0C221A60134B00221A60BD4680BDC04600000640A9
:400B00000B0000024000064048000640000306400700008004030640100306404400064000020640040206400D160000880E0640C80E0640480F0640080F0640C80F0640CE
:400B4000880F064080B582B000AF00237B6000F037FD031C002B03D000F022FD031C7B60084B1A68D8239B00134005D000237B60044BD82292001A607B68181CBD4602B088
:400B800080BDC046C00F064080B584B000AF78600023FB6009E07A68FB68D3181B78181C00F01EFDFB680133FB607A68FB68D3181B78002BEFD1BD4604B080BD80B584B087
:400BC00000AF021CFB1D1A700D4B1B68D9B23B1C0F337F220A401A70FB1D1B78DB01D9B23B1C0F333A1C0F3212780A431A70044B3A1C0F3212781A60BD4604B080BDC0468B
:400C00000000044080B584B000AF021CFB1D1A700E4B1B68DAB23B1C0F3302218A431A70FB1D1B78DB18DAB202231340D9B23B1C0F333A1C0F3212780A431A70034B3A1CBB
:400C40000F3212781A60BD4604B080BD0001044080B584B000AF021CFB1D1A700D4B1B68DAB23B1C0F3301218A431A70FB1D1A7801231340D9B23B1C0F333A1C0F3212783F
:400C80000A431A70034B3A1C0F3212781A60BD4604B080BD0001044080B500AF00F03EF8BD4680BD80B500AF054B054A1268802109060A431A6000F017F8BD4680BDC04638
:400CC0000000074080B500AF064B1B78002B04D1FFF7E2FF034B01221A70FFF7E3FFBD4680BDC0467001002080B500AFBD4680BD80B582B000AF7860C046064B1A680F2347
:400D00001340082BF9D0044B7A681A60BD4602B080BDC046080207404002074080B500AF174B184A1A60184B00221A60174B01221A60174B174A1A60174B07221A60174B23
:400D400000221A60164B01221A60164B114A1A60154B00221A60154B00221A60144B00221A60144B00221A60134B00221A60134B00221A60124B00221A60BD4680BDC04682
:400D8000000007400B000002400007404800074000030740070000800403074010030740440007400002074004020740880E0740C80E0740480F0740080F0740C80F07401B
:400DC000880F074080B584B000AF78600023FB6009E07A68FB68D3181B78181CFFF788FFFB680133FB607A68FB68D3181B78002BEFD1BD4604B080BD80B584B000AF021C80
:400E0000FB1D1A700E4B1B68DAB23B1C0F3340218A431A70FB1D1B789B01DAB240231340D9B23B1C0F333A1C0F3212780A431A70034B3A1C0F3212781A60BD4604B080BDD5
:400E40000000044080B584B000AF021CFB1D1A700E4B1B68DAB23B1C0F3304218A431A70FB1D1B789B00DAB204231340D9B23B1C0F333A1C0F3212780A431A70034B3A1CCD
:400E80000F3212781A60BD4604B080BD0001044080B584B000AF021CFB1D1A700E4B1B68DAB23B1C0F3308218A431A70FB1D1B78DB00DAB208231340D9B23B1C0F333A1C51
:400EC0000F3212780A431A70034B3A1C0F3212781A60BD4604B080BD0001044080B584B000AF021CFB1D1A700E4B1B68DAB23B1C0F3320218A431A70FB1D1B785B01DAB22A
:400F000020231340D9B23B1C0F333A1C0F3212780A431A70034B3A1C0F3212781A60BD4604B080BD0001044080B584B000AF021CFB1D1A700E4B1B68DAB23B1C0F331021D3
:400F40008A431A70FB1D1B781B01DAB210231340D9B23B1C0F333A1C0F3212780A431A70034B3A1C0F3212781A60BD4604B080BD0001044090B583B000AF114B181C00F05C
:400F80005FF80F4B181C00F071F8FC1D00F006F9031C23700B4B0B4A1278D2B210210A43D2B21A70FB1D1B78181C00F0FBF800F069F8002000F02AF8BD4603B090BDC046A6
:400FC000FF356E0193000F4080B500AF054B054A1278D2B2802149420A43D2B21A70BD4680BDC04670000F4080B500AF064B1B78002B04D1FFF7BEFF034B01221A70FFF7E3
:40100000E3FFBD4680BDC0467801002080B582B000AF021CFB1D1A70034BFA1D12781A70BD4602B080BDC04683000F4080B500AF024B1B78DBB2181CBD4680BD63000F405F
:4010400080B582B000AF7860024B7A681A60BD4602B080BD80200F4080B500AF024B1B68181CBD4680BDC04600210F4080B582B000AF7860024B7A681A60BD4602B080BDD1
:4010800000200F4080B500AF01E0FFF7E5FFFFF7CDFF031C1A1C08231340F6D1BD4680BD80B584B000AF021CFB1D1A700E4B1B68DAB23B1C0F3310218A431A70FB1D1B787A
:4010C0001B01DAB210231340D9B23B1C0F333A1C0F3212780A431A70034B3A1C0F3212781A60BD4604B080BD0003044080B584B000AF021CFB1D1A700E4B1B68DAB23B1CEB
:401100000F3320218A431A70FB1D1B785B01DAB220231340D9B23B1C0F333A1C0F3212780A431A70034B3A1C0F3212781A60BD4604B080BD0003044080B584B000AF021C36
:40114000FB1D1A700E4B1B68DAB23B1C0F3340218A431A70FB1D1B789B01DAB240231340D9B23B1C0F333A1C0F3212780A431A70034B3A1C0F3212781A60BD4604B080BD92
:4011800000030440000000000230800804D0C0460138FDD1C046C046C0467047EFF3108072B6704780F310887047C046C046C04690B585B000AF78607B68022B00D8BAE0DC
:4011C0007B68302B00D9B6E05E4B1B78DBB21A1C7B689A420AD35C4A3B1C0F3312781A705A4A3B1C0E3312781A703FE0584B1B78DBB21A1C7B689A420AD3564A3B1C0F3317
:4012000012781A70544A3B1C0E3312781A702DE0524B1B78DBB21A1C7B689A420AD3504A3B1C0F3312781A704E4A3B1C0E3312781A701BE04C4B1B78DBB21A1C7B689A4282
:401240000AD34A4A3B1C0F3312781A70484A3B1C0E3312781A7009E0464A3B1C0F3312781A70454A3B1C0E3312781A707B68DA1E3B1C0C3341498A5C1A703C1C0B34FFF7B9
:401280008DFF031C23703B1C0C331B782F2B0DD97B682A2B0AD93A4B19221A600520FFF773FF3B1C0D3319221A7007E0344B1B68D9B23B1C0D333F220A401A703A1C0C3275
:4012C0003B1C0D3312781B789A4208D22C4B7A68033A2A498A5C1A600520FFF755FF294B7A68254952181278D2B21A60264B3A1C0F3212781A60254B3A1C0E3212781A60E0
:40130000052000F019F93A1C0C323B1C0D3312781B789A4208D91A4B7A68033A17498A5C1A600520FFF730FF3B1C0B331B78181CFFF738FF02E0002000F0D0F8BD4605B0F8
:4013400090BDC046C0F1FF0FC1F1FF0FC2F1FF0FC3F1FF0FC4F1FF0FC5F1FF0FC6F1FF0FC7F1FF0FC8F1FF0FC9F1FF0FCAF1FF0FCBF1FF0FCCF1FF0FCDF1FF0F80230000AA
:401380002CFF0B4028FF0B401CFF0B4020FF0B4080B584B000AF021C3960FB1D1A7080239B05FB60FB1D1B781F2B02D9002000F095F8FB1D1B7810339B00FA68D3181B68A0
:4013C000BB60FB1D1B7810339B00FA68D3183A681A60BB68181CBD4604B080BD90B587B000AF0A1CFB1D011C1970BB1D1A70BB1D1B78032B02D9002000F070F8FB1D1B788D
:401400001F2B02D9002000F069F8FB1D1A7803231340DB0006337B613C1C1334FFF7BEFE031C2370FB1D1B789B08DBB29B0014495B181B68FB607B690322111C99400B1CA6
:40144000DA43FB681340FB60BB1D1A787B69111C99400B1CFA681343FB60FB1D1B789B08DBB29B00064A9B18FA681A603B1C13331B78181CFFF796FEBD4607B090BDC04660
:4014800000E400E080B582B000AF021CFB1D1A70064BFA1D11781F220A400121081C9040021C1A60BD4602B080BDC04600E100E080B582B000AF021CFB1D1A70064BFA1D71
:4014C00011781F220A400121081C9040021C1A60BD4602B080BDC04680E100E080B582B000AF021CFB1D1A7001BEBD4602B080BD80B582B000AF786008E00C4B1B68181C86
:40150000FFF742FE7B680A4A9B187B607A6880231B029A42F1D8074B1B687A685343181CFFF732FEBD4602B080BDC046DC0000200080FFFFD400002080B582B000AF021C28
:40154000BB1D1A80BB1D1B88044A12785343181CFFF71AFEBD4602B080BDC046D800002080B582B000AF021CFB1D1A70034BFA1D12781A70BD4602B080BDC04673000F40D5
:4015800080B582B000AF021CFB1D1A70034BFA1D12781A70BD4602B080BDC04672000F4080B582B000AF00237B60044B1B687B607B68181CBD4602B080BDC04640030640CA
:4015C00080B582B000AF054B1A680F2313407B607B68181CBD4602B080BDC0460803064080B582B000AF7860C046064B1A680F231340082BF9D0044B7A681A60BD4602B09B
:4016000080BDC046080206404002064080B500AF044B1B68002B02D0024B1B689847BD4680BDC0466C010020002934D00123002210B488422CD301242407A14204D281428E
:4016400002D209011B01F8E7E400A14204D2814202D249005B00F8E7884201D3401A1A434C08A04202D3001B5C0822438C08A04202D3001B9C082243CC08A04202D3001B81
:40168000DC082243002803D01B0901D00909E3E7101C10BC7047002801D00020C04307B4024802A14018029003BDC046190000000029F0D003B5FFF7B9FF0EBC4243891A98
:4016C0001847C0467047C04608B500210A2200F02FF908BD014B18687047C0464001002070B50E4B0E4D0024ED1AAD101E1CAC4204D0A300F35898470134F8E700F0F4FE77
:40170000084B094D0024ED1AAD101E1CAC4204D0A300F35898470134F8E770BDF4240000F4240000F4240000FC24000010B50023934203D0CC5CC4540133F9E710BD031CD6
:401740008218934202D019700133FAE7704700000CB430B5164B9DB00C1C1D6804D58B2301202B6040421DE0822302A99B008B810023029008619C4200D0631E8B604B6146
:4017800001235B42CB81209A21AB281C019300F03DF9421C01DA8B232B60002C02D0029A002313701DB030BC08BC02B01847C04640010020F0B5002802D11068002826D0BB
:4017C0000578441C0E1C3778002F09D00136BD42F9D1002B01D0201CF2E71460037016E0002D09D11560281C11E02F78B74207D00135002FF9D11C1C631C26780D1CF4E78D
:40180000002E02D00021217000E0331C1360F0BD08B50123FFF7CEFF08BD0000F0B51D1C424B87B01B6805900293039101920B1C1C78029F5E1C3A19517808220A4001D091
:40184000331CF5E72D2C04D101279E1C5C78009704E000922B2C01D15C789E1C10232A1C9A4311D1302C08D1327820218A43582A07D174781D1C023606E0002D04D10A25A2
:4018800002E0002D00D10825009F291C7B427B4180273F06FF1A381CFFF70AFF381C0491291CFFF7C1FE0023021C181C029F391949784F0701D5303C07E003270F4017D07B
:4018C0005721012F00D13721641AAC4210DA591C0BD0904207D802D1049FBC4203DC68430123201801E001235B4234780136DDE7009F591C0BD180207B427B410006059F6A
:40190000C01A22233B60019F002F09D10BE0002F00D04042019F002F05D0039A002B00D0721E019F3A6007B0F0BDC0464401002038B5131C044A051C0C1C1068291C221C55
:40194000FFF76CFF38BDC04640010020F0B58D6885B0071C0C1C03920193AB4245D390228B89D20013423DD062690326564309692068F20F401A96190290021C019801325B
:4019800012187610964200D2161C381C5A050FD5311C00F021FB051E13D0029A2169FFF7C5FEA289184B134080221343A38111E0321C00F065FB051E0CD1381C216900F06C
:4019C000C3FA0C233B60A389402213430120A381404217E0029B2561ED1825606661019DF61AA6600198A84200D2019D2A1C2068039900F090FAA2680020531BA360236899
:401A00005D19256005B0F0BD7FFBFFFFF0B59FB0039005938B890E1C171C19060FD53269002A0CD1402100F0D7FA30603061002803D103990C230B60C9E04023736106AD94
:401A400000236B6120236B763023AB763C1C2378002B03D1E21B029211D003E0252BF9D00134F4E70398311C3A1C029BFFF76EFF013000D1A6E06969029A8B186B61237831
:401A8000002B00D19EE0012252426A606A4600235B3201342B60EB60AB601370AB654E4F2178381C052200F02BFA002807D0C71B2B680120B840184328600134EFE72B684E
:401AC000D90603D56A4620215B3211701A0703D56A462B215B32117022782A2A01D0099B0EE0059A111D12680591002A01DB099204E05242EA60022213432B60013409E079
:401B00002278303A092A04D80A214B4301349B18F6E7099323782E2B18D163782A2B09D1059B02341A1D1B680592002B0DDA01235B420AE0013400232278303A092A04D842
:401B40000A214B4301349B18F6E70793234F2178381C032200F0D4F9002806D0C71B2B684020B84018432860013421781C480622671C297600F0C4F9002812D0194B002B9C
:401B800006D1059B0722073393430833059314E005AB00930398291C321C134B00E000BF07E005AB00930398291C321C0E4B00F091F804900499013104D06A690499531804
:401BC0006B6143E7B3895A0601D40B9801E0012040421FB0F0BDC046B2230000B8230000BC230000000000004D190000F7B5151C01930A698B68061C0C1C934200DA131CE1
:401C0000221C2B6043321278002A01D001332B602068800602D52B6802332B60216806270F401FD0231C43331B785A1E9341226892061FD5E11840313020C870211C5A1CA7
:401C400045310978A21840320233D17012E0221C301C019919320123089FB847013011D0009F01370097E0682968009F431A9F42EDDBD7E7221C301C01994332089FB847A5
:401C8000013002D10120404223E0206806212B68E26801400025042903D1D51AEB43DB171D40A26823699A4201DDD31AED1800270097009FAF420BDA221C301C01991A3236
:401CC0000123089FB8470130DCD0009F0137EFE70020FEBDF0B50D1C8BB0433506920590079304950B7E0C1C109A6E2B00D1A7E011D8632B22D009D8002B00D1B0E0582B2F
:401D000000D0C0E045310B707B4D4EE0642B1CD0692B1AD0B7E0732B00D1A5E009D86F2B29D0702B00D0AEE00E68202333430B6036E0752B1FD0782B32D0A4E013680D1C4F
:401D4000191D423511601B689FE0216813680E0603D5191D11601E6805E04806F9D5191D116000215E5E644B002E3BDA049D2D2276422A7036E0216813680E0603D5191D31
:401D800011601E6804E04806F9D5191D1E881160594B227E039308276F2A1ED00A271CE0231C78214533554D197011682368081D039510601E0601D50E6802E05806FBD5F6
:401DC0000E88D90702D52022134323601027002E03D1226820239A432260231C002243331A7001E003930A276368A360002B03DB2568042295432560002E02D1049D002B59
:401E00000ED0049D301C391CFFF752FC0398013D435C301C2B70391CFFF706FC061EF1D1082F09D12168C90706D5626823699A4202DC013D30232B70049E731B23612AE06D
:401E4000086813684969050604D5181D10601B68196005E04606F8D5181D10601B68198000232361049D16E01368191D11601D68281C00F03DF963682061984200D92361AF
:401E80002069606004E0251C42352B7001232361049E00233370079E05980096211C09AA069BFFF7A3FE013002D10120404221E02A1C059806992369079DA8470130F4D054
:401EC0002668B60705D4099BE068984212DA181C10E00025E0680999431A9D42F3DA221C0598069919320123079EB0470130DCD00135EFE70BB0F0BDC3230000D42300001D
:401F0000C9B28218904204D003788B4202D00130F8E70020704770B5814201D300230CE08C18A042FAD28518131C013B0BD351426618F65C6918CE54F7E7934203D0CC5C2E
:401F4000C4540133F9E770BD30B5002940D004390B68002B00DAC9181E4A1368141C002B02D14B60116033E099420FD208680A189A4205D113685268C01808604A6000E015
:401F80004B60216024E08A4203D8131C5A68002AF9D11D685C198C420BD10968691858181960904214D114685268091919605A600EE08C4202D90C23036009E008680C18FE
:401FC000944203D114685268001908604A60596030BDC0468001002070B50323CD1C9D430835061C0C2D01D20C2501E0002D3FDB8D423DD3204B1C681A1C211C002913D064
:402000000868431B0DD40B2B02D90B60CC181EE08C4202D1636813601AE0486860600C1C16E00C1C4968E9E7144C2068002803D1301C00F04BF82060301C291C00F046F8E1
:40204000431C15D0C41C03239C4384420AD12560201C0B300722231D9043C31A0BD05A42E25008E0211A301C00F030F80130EED10C233360002070BD800100207C01002014
:40208000F8B5061C0C1C151C002904D1111CFFF7A3FF041C18E0002A03D1FFF755FF2C1C12E000F02CF8A8420ED2301C291CFFF793FF071E07D0211C2A1CFFF737FB301CB1
:4020C000211CFFF741FF3C1C201CF8BD38B5074C0023051C081C2360FEF7F0F8431C03D12368002B00D02B6038BDC046340200200023C25C0133002AFBD1581E70470439B2
:402100000B68181F002B02DAC8581B18181F704700000000426F6F70000000002D00000000000000594F55204944494F542120594F55274C4C204B494C4C20534F4D454F6E
:402140004E45210D0A0000004F50454E494E4720434C41570D0A0000434C4F53494E4720434C41570D0A0000524544204C494748540D0A00475245454E204C494748540D19
:402180000A000000414D424552204C494748540D0A0000004D6F746F722025642069732073657420746F2073706565642025640D0A00000053657474696E67206D6F746F2C
:4021C0007220256420746F2073706565642025640D0A000042616420646174612E20476F743A206D6F746F723A25642076616C75653A25640D0A000053657474696E672034
:402200006D6F746F7220256420746F2025640D0A00000000A2080000220800003E0800005A080000760800009208000000300F40000400400F40000402000F4028300F405F
:4022400008310F403B320F401F330F4007410F4002600F407301830D405449FF4AFF4BFF4F01501852805A045B045D995F016040624064406540668068806A806C806E8004
:40228000C051C9FFCAFFCBFFCD83CE03CF01D018DA04DD09DF01E040E240E440E540E680E880EA80EC80EE804101460148024C0270027102D011D218405149FF4AFF4BFF5B
:4022C0004D834E034F0150185A045B045D095F016040624064406540668068806A806C806E8080028E0192019802B001B202B601B808BB30BE44C045C5ECC720C823C9FF0E
:40230000CAFFCBFFCD83CE03CF01D018D401D804D908DA04DB04DC99DD99DF01E040E240E440E540E680E880EA80EC80EE8000020201092219401A101B01212041024601E0
:4023400049054A024C0251015203594568016C017B0180018E1095029E01A002A102C009C20AD011D218D60BDE08E6105808660480088E04D640D880E620020111010000BA
:40238000030405060708090A0B0C0E0F101112131415161718191B1C1D1E1F2021222325262728292A2B2E2F30313233343500004300232D302B2000686C4C006566674588
:4023C00046470030313233343536373839414243444546003031323334353637383961626364656600002020202020202020202828282828202020202020202020202020E4
:402400002020202020208810101010101010101010101010101004040404040404040404101010101010104141414141410101010101010101010101010101010101010133
:4024400001101010101010424242424242020202020202020202020202020202020202020210101010200000000000000000000000000000000000000000000000000000E7
:40248000000000000000000000000000000000000000000000000000000000000000000000000000000000000000000000000000000000000000000000000000000000001C
:4024C00000000000000000000000000000000000000000000000000000000000000000000000000000000000F8B5C046F8BC08BC9E4670477D020000A5030000F8B5C0463C
:40250000F8BC08BC9E4670475502000020250000C800002080000000F000000000000000000000003802002000366E01C05D0000180000000000E02E000000000000000052
:40254000000000000000000000000000000000000000000000000000B023000000000000000000000000000000000000000000000000000000000000000000000000000088
:40258000000000000000000000000000000000000000000000000000E0000020E5230000000000000000000000000000000000000000000000000000000000000000000013
:4025C00000000000000000000000000000000000000000000000000000000000000000000000000000000000000000000000000000000000000000000000000000000000DB
:40260000000000000000000000000000000000000000000000000000000000000000000000000000000000000000000000000000000000000000000000000000000000009A
:40264000000000000000000000000000000000000000000000000000000000000000000000000000000000000000000000000000000000000000000000000000000000005A
:40268000000000000000000000000000000000000000000000000000000000000000000000000000000000000000000000000000000000000000000000000000000000001A
:0200000490303A
:0200000003BA41
:0200000490402A
:200000000000000000000000000000000000000000000000000000000000000000000000E0
:0200000490501A
:0C000000000204C81193110004D4154D37
:0200000490600A
:0100000001FE
:00000001FF