:400000000010002011000000CD020000CD02000080B500AF00F05EF980B584B000AF021CFB1D1A70204A3B1C0B3312781A701F4A3B1C0A3312781A700423013BFB6018E004
:400040001B4B1868391C0B31FA68131C5B009B18C3185B780B70164B1868391C0A31FA68131C5B009B18C3189B780B70FB68013BFB60FB68002B0ADB0D4B1968FA68131CF1
:400080005B009B185B5CFA1D12789A42D8D9094B3A1C0B3212781A60074B3A1C0A3212781A60BD4604B080BDCCF1FF0FCDF1FF0FCC0000201CFF0B4020FF0B4080B500AF4F
:4000C000174B174A12688021C9020A431A601820FFF7A2FF134B19221A60052000F0CCF9114B124A1278D2B21A60052000F0D8F90B4B0B4A11680E4A0A401A600D4B0E4ABE
:400100001A600E4B20221A600D4B802212061A600C4B0D4A1A600D4B0D4A1A60BD4680BD00010B402CFF0B4028FF0B40E5F1FF0FFFFFFBFF04010B400600008008020240E1
:4001400008010B400000024001000080400002401000008080B582B000AF72B6FB1D00221A7023E0FB1D1A78131C5B009B185B00304A9B183B603B681A78597809020A43E9
:40018000997809040A43DB781B0613431A1C3B6819795B791B020B439BB2101C191C00F017F9FB1D1A78FB1D01321A70FB1D1B78012BD7D9204A214B101C191C00F018F974
:4001C0001F4BEE2212021A601E4B99221A601E4BD82212011A601D4B02221A601C4B31221A601C4B02221A601B4B992212041A601A4B1A4A1278D2B202210A43D2B21A7024
:40020000174B174A1278D2B23C218A43D2B214210A43D2B21A70114B104A1278D2B216210A43D2B21A70FFF749FF00F021F9BD4602B080BD2C050000380500004805000064
:400240000C000140100001400803044000040440080404401804044030500F4000700F4001700F4010B5064C2378002B07D1054B002B02D0044800E000BF0123237010BDDA
:40028000E0000020000000002405000008B5084B002B03D00748084900E000BF07480368002B03D0064B002B00D0984708BDC0460000000024050000E4000020C800002005
:4002C0000000000080B500AFFEE7C04680B500AFFEE7C04680B586B000AF224B7B61224B3B61204B7B6135E03B691B68FB603B695B68BB603B699B683B6000237B600CE068
:40030000FB681A68BB681A60BB680433BB60FB680433FB607B6804337B607A683B689A42EED13B69DB683B6000237B6008E0BB6800221A60BB680433BB607B6804337B602B
:400340007A683B689A42F2D13B6910333B617B69013B7B617B69002BC6D100F0B5F8FFF7B1FFFEE7010000002406000080B582B000AF00237B600FE07B68032B04D8104B96
:400380007A689200D35800E00E4B0F4A796889008B507B6801337B607B682F2BECD9FFF7D9FE0A4B00221A608023DB058022D205126801210A431A60BD4602B080BDC046BE
:4003C00000000000CD02000000000020C000002080B582B000AF786039607A683B68101C00211A1C00F096F8BD4602B080BDC04680B586B000AF7860396000233B610023BC
:400400007B612EE07B699B007A68D3181B68BB603B1C0F33BA681A70BB68FF229343BB6017E03B695B003A68D3181B781A1CBB68D3183A69520039688A1852781A703B69E4
:4004400001333B613B1C0F331A783B1C0F33013A1A703B1C0F331B78002BE2D17B6901337B617B69032BCDD9BD4606B080BDC04680B500AFBD4680BD0230800804D0C046B9
:400480000138FDD1C046C046C0467047EFF3108072B6704780F310887047C046C046C04680B582B000AF021CBB1D1A80BB1D1B88044A12785343181CFFF7DEFFBD4602B0FC
:4004C00080BDC046D800002070B50E4B0E4D0024ED1AAD101E1CAC4204D0A300F35898470134F8E700F08CF8084B094D0024ED1AAD101E1CAC4204D0A300F3589847013420
:40050000F8E770BD0C0600000C0600000C06000014060000031C8218934202D019700133FAE77047000000000400000000300F40000400400F40000401000F4035320F408A
:4005400024330F4002600F40826F030607011203140118041A081C041D042501300131023202340835013604370438803E413F504051452346C0475E483B49FF4AFF4BFF0C
:400580004DA04F015018540F5C995D995F016040628064406540668068406A806C406D206E808801AE01B601B808BE40D280DC09DD90DF0100100D020E200F0A10021810AD
:4005C0001A021D801E601F20278A2F2037803F0A45804E014F0A550256185D105E405F0A6618700289108B01C002C2F0C401CA40CC10CEC0D010D210D6F0D8600201110148
:40060000F8B5C046F8BC08BC9E4670478D0200006D030000F8B5C046F8BC08BC9E4670476502000038060000C800002018000000200000000000000000000000C0F1FF0FAB
:4006400000366E01C05D0000180000000000E02E00000000000000000000000000000000000000000000000000000000000000000000000000000000000000000000000092
:40068000000000000000000000000000000000000000000000000000000000000000000000000000000000000000000000000000000000000000000000000000000000003A
:4006C00000000000000000000000000000000000000000000000000000000000000000000000000000000000000000000000000000000000000000000000000000000000FA
:4007000000000000000000000000000000000000000000000000000000000000000000000000000000000000000000000000000000000000000000000000000000000000B9
:400740000000000000000000000000000000000000000000000000000000000000000000000000000000000000000000000000000000000000000000000000000000000079
:0200000490303A
:02000000FE2DD3
:0200000490402A
:200000000000000000000000000000000000000000000000000000000000000000000000E0
:0200000490501A
:0C000000000204C81193110104CA0FC0D3
:0200000490600A
:0100000001FE
:00000001FF