:400000000010002011000000B5020000B502000080B500AF00F0A0FA00F050F980B584B000AF021CFB1D1A70204A3B1C0B3312781A701F4A3B1C0A3312781A700423013B0B
:40004000FB6018E01B4B1868391C0B31FA68131C5B009B18C3185B780B70164B1868391C0A31FA68131C5B009B18C3189B780B70FB68013BFB60FB68002B0ADB0D4B19682F
:40008000FA68131C5B009B185B5CFA1D12789A42D8D9094B3A1C0B3212781A60074B3A1C0A3212781A60BD4604B080BDCCF1FF0FCDF1FF0FD40000201CFF0B4020FF0B409A
:4000C00080B500AF134B134A12688021C9020A431A602020FFF7A2FF0F4B104A1278D2B21A60052001F066FB0D4B22221A600D4B0D4A1A600D4B10221A600D4B80221206D5
:400100001A60044B8022D2021A600A4B0A4A1A60BD4680BD00010B4028FF0B40EDF1FF0F2CFF0B4004010B40060000800C02024008010B40000002401300008080B582B0CD
:4001400000AF72B6FB1D00221A7023E0FB1D1A78131C5B009B185B002D4A9B183B603B681A78597809020A43997809040A43DB781B0613431A1C3B6819795B791B020B439D
:400180009BB2101C191C00F01FF9FB1D1A78FB1D01321A70FB1D1B78012BD7D91D4B1E4A1A601E4B08221A601D4BC02212011A601C4B03221A601C4B1C4A1A601C4B9922E6
:4001C00012041A601B4B992212041A601A4B1A4A1278D2B202210A43D2B21A70174B174A1278D2B23C218A43D2B214210A43D2B21A70114B104A1278D2B216210A43D2B28E
:400200001A70FFF75DFF00F0EFF8BD4602B080BD702200000C000140EEEE000000000440080004400003044008030440A40D000000500F4030500F4000700F4001700F409A
:4002400010B5064C2378002B07D1054B002B02D0044800E000BF0123237010BDF0000020000000006822000008B5084B002B03D00748084900E000BF07480368002B03D06E
:40028000064B002B00D0984708BDC0460000000068220000F4000020D00000200000000080B500AF62B6002000F076FF00F0F8F8FEE7C04680B500AFFEE7C04680B586B034
:4002C00000AF224B7B61224B3B61204B7B6135E03B691B68FB603B695B68BB603B699B683B6000237B600CE0FB681A68BB681A60BB680433BB60FB680433FB607B6804336B
:400300007B607A683B689A42EED13B69DB683B6000237B6008E0BB6800221A60BB680433BB607B6804337B607A683B689A42F2D13B6910333B617B69013B7B617B69002B7F
:40034000C6D101F055FFFFF7ABFFFEE7010000000023000080B582B000AF00237B600FE07B68032B04D8134B7A689200D35800E0114B124A796889008B507B6801337B603C
:400380007B682F2BECD9FFF7D9FE0D4B00221A600C4B1B68002B02D10A4B00221A608023DB058022D205126801210A431A60BD4602B080BD00000000B50200000000002089
:4003C000C8000020C000002080B582B000AF786039607A683B68101C00211A1C01F037FFBD4602B080BDC04680B500AFBD4680BD80B584B000AF78600A1CBB1C1A803B1C85
:400400000E3300221A8012E0BB1C1B88013B7A68D3181B78191C3B1C0E333A1C0E3212888A181A80BB1C1A88BB1C013A1A80BB1C1B88002BE8D13B1C0E331B885B429BB2D6
:40044000181CBD4604B080BD80B586B000AFF860B9607A603B1C173300221A70FB68002B03D0002001F068F910E00FE07B68013B7B60FA68BB68D2187B68D31819783B1CD1
:4004800017333A1C173212788A181A707B68002BECD13B1C17331B78181CBD4606B080BD90B583B000AF06237B60002000F07CF8031C002B01D100237B601E4B1B681B683C
:4004C000C03BFC1C0020C0211A1CFFF7BDFF031C2370194B1B681A78FB1CF91C09788A1A1A70FB1CFA1C127852421A70124B1B681B78FA1C12789A4204D10E4B1B681B6802
:40050000002B02D1002001F017F90C4B1B68402B02D07B68002B05D0084B00221A60002000F0CAF8142000F0C7F800F009F8BD4603B090BDDC000020D8000020C000002036
:4005400080B500AF034B80221A6001F0FFF8BD4680BDC046C000002080B500AF0F4B1A681023134002D10E4B00221A600C4B1B68802B11D10A4B00221A600220002100F086
:4005800019FD031C002B07D00220002100F012FD031C181C00F006F8BD4680BD00030B40C00000200047C04690B587B000AF021CFB1D1A70FB1D1B780320191C00F0FAFCF2
:4005C000031C0133DC01FB1D1B780420191C00F0F1FC031CE318FB603B1C133300221A703B1C123300221A70FB1D1B780620191C00F0E0FC031C012B01D1002355E0FB1D85
:400600001B780320191C00F0D5FC031C0133DB017B611FE07A693B1C0B3312781A703B1C0B331B78002B08D03B1C0B331B78FF2B03D03B1C133301221A703B1C1233391CED
:4006400012313A1C0B32097812788A181A707B6901337B617A69FB689A42DBD33B1C12333A1C1232127852421A703B1C12331C78FB1D1B780120191C00F09CFC031C9C4215
:4006800004D13B1C13331B78002B01D106230CE0FB1D1A78131C5B069B1ADB01054A9B18181C012100F03AFC0023181CBD4607B090BDC046D17F000090B5C74CA54400AF36
:4006C000021CC64BC6208000C019C3181A70C4497B1800221A80C4229200BB1800221A80C04C3B190A221A70BF483B1800221A70BE497B1800221A7001F070F862B6BC4AEB
:40070000BB1800221A70B54BC624A400E419E3181B78002B06D0B14BC6208000C019C3181B7800E0FF23E0214900781896225100B04C3A1901F058F8031CC0208000C019AA
:400740000360A64BC6218900C919CB181B78002B06D0A44ABB181A78A24C3B19013A1A70A0483B181B78002B05D0C0218900C9190B68002BC7D1C0229200D2191368002BAD
:4007800000D048E39B4C3B191B88062B07D99A4BC6208000C019C3181B78012B04D094497B1804221A7062E0934BC6229200D219D318DB781B0299B28F4BC624A400E4190D
:4007C000E3189B781A1C86483B180A431A8084497B181B880533884AC624A400E419A218D35C1B0299B27E483B181B880433824AC624A400E419A218D35C1A1C7F483B1841
:400800000A431A8076497B181B88DA1D794C3B191B889A4204D976483B1803221A7026E06F497B181B880633734AC624A400E419A218D35C172B04D06D483B1804221A7084
:4008400015E067497B181B8804339BB2E02464003A19101C191CFFF7CBFD031C67483A1812889A4203D062497B1808221A70644ABB1800221A805E4C3B191B78002B00D01B
:40088000BBE260483B185C4AC6218900C9198A1812791A70564ABB1804221A70564BC624A400E419E3185B78313B0A2B00D99FE29A00554BD3181B689F464C483B181B78D2
:4008C000012B1BD146497B181B88002B16D10020FFF76AFE031C5A425341DBB21A1C464BC624A400E419E3181A7145483B1801221A803F497B1800221A707EE27DE23B4A2F
:40090000BB181B78012B65D1354C3B191B88012B60D13C483B181B78002B5BD13B4B1B681B68DA0BBF2189007B181A70354BFA18BF24A4003B1912781B789A420AD1334BA3
:400940001B681B68DB0999B231483B18FF220A401A8012E02B497A18BF24A4003B1912781B789A4204D92A483B1800221A8004E027497B18802252001A80254ABB181B88ED
:40098000DAB21D4BC624A400E419E3181A7120483B181B881B0A9BB2DAB2174BC6218900C919CB185A71144BC6229200D219D318FF229A71104BC624A400E419E318002296
:4009C000DA710F483B1804221A8009497B1800221A7012E211E2C046E4FCFFFFEFFCFFFF120300000F0300000E0300000D03000015030000EE020000A8FEFFFFFE02000009
:400A000016030000FD02000084220000DC0000200A030000AC4BC6229200D219D3185B78342B1BD1A94C3B191B78012B00D0E4E1A7483B181B88032B00D0DEE1C4218900DD
:400A40007B1880221A80C4229200BB181B883A1C9432101C00211A1C01F0F9FB9B4C3B191B78012B00D0BDE099483B181B88022B00D8B7E0C42189007B181B883A1C94329B
:400A8000D118934ABB181B88033BE02464003A190732081C111C1A1C01F0D0FBC42080003A188B497B1812881B88D3189AB2C424A4003B19033A1A8085483B1880221A80E1
:400AC000C42189007A18824C3B1912881B889A4200D07DE07C4BC6208000C019C3189B791B0299B2784BC6229200D219D3185B791A1CC424A4003B190A431A8075483B183D
:400B00001B789BB21B0299B2734ABB18C424A4003A1912888A181A80704B1B681B68DA09C22080003B181A806C4B1B681A687F23134008D0C22189007B181A88C224A40081
:400B40003B1901321A8064483A18C22189007B1812881B889A4209D2614ABB180A221A70C424A4003B1900221A8046E15D483B181B78002B19D13B1C0C33181C002180223F
:400B800001F065FB58497B1800221A70564ABB181B78FF22D21A3B1C0C33101C191C00F021FB504C3B1901221A704B483B181A883B1C9433101C191C00F014FB031C002B01
:400BC00001D00A2300E0002345497A18137003E0434ABB1803221A70C424A4003B1900221A800AE109E139483B181B78012B05D1C42189007B1800221A800CE1FDE0334A81
:400C0000BB181B78012B35D1C424A4003B191A882F483B181B88D3181A1C96235B009A4223D82F497B1800221A70C4229200BB181B883A1C9432D118254C3B191B88E0200F
:400C400040003A180432081C111C1A1C01F0F6FAC42189007B18C4229200B9181C4C3A19098812888A181A8004E01D483B1803221A70C2E0C1E016497B181B88002B22D197
:400C80001A4BC6229200D219D318194A11CA11C30E497B1801221A70164ABB1808221A80144C3B191B88E02040003A18111D3A1C8C32081C111C1A1C01F0C0FA08497B189E
:400CC00000221A7099E098E0A8FEFFFF0D03000012030000FD020000FA020000DC000020150300000E030000F902000074FDFFFF7C22000016030000514ABB181B78012B20
:400D000069D1504C3B191B88032B64D14E4BC6208000C019C3189B791B0299B24A4BC6229200D219D3185B791A1C484C3B190A431A8047483B181B781A0244497B181B8842
:400D4000D318DB01BC229200D2191360414BFC18BC208000C01903680020191C8022FFF773FB031C23703A497B181B78002B1ED1364ABB181B88FF2B19D10520002100F08E
:400D800019F9031CDAB2334C3B193248391809788A1A1A700620002100F00CF9031CDAB22C497B182B4C391909788A1A1A7029483B181B785B42DAB2234BC6218900C91982
:400DC000CB181A71244ABB1800221A70234C3B1901221A8011E010E00020FFF7E5FB031C002B02D11E4B80221A6000F0AFFC04E019483B1805221A70C04617497B18197831
:400E0000E0235B00FA18154C3B191B88081C111C1A1C00F029F8134BC6208000C019C3181B78002B00D16AE405497B181B78012B00D164E4BD46C7239B009D4490BDC04688
:400E40000D03000012030000A8FEFFFFF6020000FD020000070300001503000016030000C0000020EFFCFFFF90B585B000AF3960FB1D011C19703B1D1A803B6801221A70EC
:400E80003B680133FA1D12781A703B6802333A1D1288D2B21A703B6803333A1D1288120A92B2D2B21A703B1D1B8804339BB23C1C0E343A68101C191CFFF79AFA031C2380B9
:400EC0003B1D1B8804333A68D3183A1C0E321288D2B21A703B1D1B8805333A68D3183A1C0E321288120A92B2D2B21A703B1D1B8806333A68D31817221A703B1D1B880733DE
:400F00009AB239683B1D081C111C1A1C962300F089FC031C181CBD4605B090BD80B5A6B000AF78600A1CFB1C1A707B689020C01903609022D2191368DA093B1C8E331A800A
:400F40007B687F2293438820C01903603B1C963300221A8014E03B1C96331B883A1C963211888820C01902688A1811783A1C0832D1543B1C96331A883B1C963301321A806F
:400F80003B1C96331B887F2BE5D97A687F2313403A1C0832F91C0978D1543B1C8E331A883B1C0833101C191C00F01CF9BD4626B080BDC04680B586B000AF0A1CFB1D011CA1
:400FC0001970BB1D1A703B1C133302221A700023FB60FB1D1B780A2B00D980E09A00634BD3181B689F46BB1D1A78131C5B069B1ADB015F4A9B187B613B1C133301221A707C
:4010000073E0BB1D1A78131C5B069B1ADB01594A9B187B613B1C133304221A7065E0BB1D1A78131C5B069B1ADB01534A9B187B615BE0BB1D1A78131C5B069B1ADB014F4AF8
:401040009B187B613B1C133304221A704DE0BB1D1A78131C5B069B1ADB01494A9B187B613B1C133301221A703FE0BB1D1A78131C5B069B1ADB01434A9B187B613B1C13330D
:4010800001221A7031E0BB1D1A78131C5B069B1ADB013D4A9B187B6127E0BB1D1A78131C5B069B1ADB01394A9B187B611DE0BB1D1A78131C5B069B1ADB01354A9B187B6197
:4010C00013E0BB1D1A78131C5B069B1ADB01314A9B187B613B1C133304221A7005E0002000F02AFB00237B61C0463B1C13331B78012B03D17B691B78DBB2FB603B1C1333D0
:401100001B78022B0BD17B691B78DBB2FB607B6901331B78DBB21B02FA681343FB603B1C13331B78042B1BD17B691B78DBB2FB607B6901331B78DBB21B02FA681343FB603A
:401140007B6902331B78DBB21B04FA681343FB607B6903331B78DBB21B06FA681343FB60FB68181CBD4606B080BDC046B0220000C07F0000C17F0000C57F0000C97F000026
:40118000D07F0000D17F0000D67F0000D27F0000D47F0000D87F000080B584B000AF021CFB1D1A700E4B1B68DAB23B1C0F3308218A431A70FB1D1B78DB00DAB20823134057
:4011C000D9B23B1C0F333A1C0F3212780A431A70034B3A1C0F3212781A60BD4604B080BD0000044090B5CFB000AF7860396000238A204000C0190360002388214900C9198E
:401200000B60002390225200D219136000239A204000C0190360002398214900C9190B60002396225200D2191360002394204000C01903607B68FF2B00D993E13B68002BED
:4012400000D18FE13A1C08323B68101C191C802200F0F4FF002392214900C9190B603FE0C74B9C225200D219D31892204000C01902689200D3588E214900C9190B608E22AA
:401280005200D2191368002B21D096235B00DB191A688E204000C0190368D31896214900C9190B6094235B00DB191A688E204000C0190368134394214900C9190B60922257
:4012C0005200D21913689A204000C019036092214900C9190B68013392225200D219136092204000C01903681F2BB9D996214900C9190B68002B07D194225200D21913683F
:40130000002B01D0012300E0002390204000C019036090214900C9190B68002B1AD0984B9C225200D219D3189A204000C01902689200D35898214900C9190B60904B9C224F
:401340005200D219D3189A204000C019026892000021D1503B1C88338A4A1A603B1C88337F225A603A1C8832854B9C214900C919CB18111C08311A1C8023081C111C1A1CF6
:4013800000F05CFF804B3A1C88321A607F4B804A1A607D4B1B681B0F1A07A0231B069A4204D0794B1A680F23134000E000238A225200D21913608A204000C0190368002BD2
:4013C00000D0CEE01C21FF317C1800F053FA031C237000F0E7F8031C88225200D21913608A204000C0190368002B25D13B1C8833684A1A603B1C88331A687B681B041A43B7
:401400003B1C88331A60604B3A1C88321A605F4B614A1A605C4B1B681B0F1A07A0231B069A4204D0584B1A680F23134000E000238A214900C9190B608A225200D2191368C1
:40144000002B00D078E090204000C0190368002B72D03B1C0833181C0021802200F0F7FE474B9C214900C919CB189A204000C0190268920098204000C0190168D1503B1C2C
:401480008833404A1A603B1C88337F225A603A1C88323B4B9C214900C919CB18111C08311A1C8023081C111C1A1C00F0C7FE364B3A1C88321A60354B354A1A60324B1B68A0
:4014C0001B0F1A07A0231B069A4204D02E4B1A680F23134000E000238A225200D21913608A204000C0190368002B25D13B1C88332A4A1A603B1C88331A687B681B041A43EC
:401500003B1C88331A60204B3A1C88321A601F4B234A1A601C4B1B681B0F1A07A0231B069A4204D0184B1A680F23134000E000238A214900C9190B6088225200D219136800
:40154000002B06D100F040F8031C88204000C01903601C21FF317B181B78181C00F08EF905E004E004238A225200D21913608A204000C0190368181CBD464FB090BDC046BD
:40158000D0FEFFFFB6D70000080000400400004004000080B6D8000005000080B6D900000600008080B582B000AF00237B60044B1A68044B1A607B68181CBD4602B080BDE3
:4015C00008010B400C01002080B582B000AF00237B60044B044A12681A607B68181CBD4602B080BD08010B400C01002080B584B000AF021C3960FB1D1A7080239B05FB602C
:40160000FB1D1B781F2B02D9002000F095F8FB1D1B7810339B00FA68D3181B68BB60FB1D1B7810339B00FA68D3183A681A60BB68181CBD4604B080BD90B587B000AF0A1C3B
:40164000FB1D011C1970BB1D1A70BB1D1B78032B02D9002000F070F8FB1D1B781F2B02D9002000F069F8FB1D1A7803231340DB0006337B613C1C133400F0FCF8031C2370D5
:40168000FB1D1B789B08DBB29B0014495B181B68FB607B690322111C99400B1CDA43FB681340FB60BB1D1A787B69111C99400B1CFA681343FB60FB1D1B789B08DBB29B009E
:4016C000064A9B18FA681A603B1C13331B78181C00F0D4F8BD4607B090BDC04600E400E080B582B000AF021CFB1D1A70064BFA1D11781F220A400121081C9040021C1A601A
:40170000BD4602B080BDC04600E100E080B582B000AF021CFB1D1A70064BFA1D11781F220A400121081C9040021C1A60BD4602B080BDC04680E100E080B582B000AF021C83
:40174000FB1D1A7001BEBD4602B080BD80B500AF044B044A12681204120C03490A431A60BD4680BD0CED00E00400FA0580B582B000AF786008E00C4B1B68181C00F070F87C
:401780007B680A4A9B187B607A6880231B029A42F1D8074B1B687A685343181C00F060F8BD4602B080BDC046EC0000200080FFFFE400002080B582B000AF021CBB1D1A8028
:4017C000BB1D1B88044A12785343181C00F048F8BD4602B080BDC046E800002080B500AF00F052F8BD4680BD80B586B000AFF8607A601A1C3B1C0A3319803B1C09331A7072
:40180000F8683B1C0A3319887A683B1C09331B7800F05AF8031C7B617B69181CBD4606B080BDC04680B586B000AFF8607A601A1C3B1C0A3319803B1C09331A70F8683B1C37
:401840000A3319887A683B1C09331B7800F09CF8031C7B617B69181CBD4606B080BDC0460230800804D0C0460138FDD1C046C046C0467047EFF3108072B6704780F310882F
:401880007047C046C046C04680B500AF0A4B181C402100F015F9094B181C002100F0EAF8074B181C00F054F9064B00221A6000F03DF9BD4680BDC04650010020100100205A
:4018C000411A00009001002080B586B000AFF8607A601A1C3B1C0A3319803B1C09331A7001237B61FB68002B43D03B1C0A331B88002B3ED010237B613B1C09331A78131C9C
:401900009B009B185B003B6130E01C4B1B78DAB210231340DBB2002B22D0194B1B689BB23A1C0A3212889A4203D83B1C0A331B8801E0134B1B68F968124A081C111C1A1C48
:4019400000F07CFC0E4B1B689AB27B681A800B4B00221A700A4B00221A6000237B6108E00120FFF703FF3B69013B3B613B69002BCBD17B69181CBD4606B080BDB801002099
:40198000A80100205001002080B586B000AFF8607A601A1C3B1C0A3319803B1C09331A7001237B61FB68002B3CD03B1C0A331B88002B37D010237B613B1C09331A78131CBB
:4019C0009B009B185B003B613B1C0A331B881849FA68081C111C1A1C00F030FC7B683A1C0A3212881A803B1C0A331A88114B1A6015E03B1C0A331A880F4B1B689A4208D193
:401A00000E4B00221A600C4B00221A6000237B6108E00120FFF7AAFE3B69013B3B613B69002BE6D17B69181CBD4606B080BDC0461001002090010020A0010020B40100208A
:401A400080B500AF084B1A68402313400AD0074B1B68002B06D0054B1A68054B1A60034B00221A60BD4680BD4C0F074090010020B401002080B582B000AF786039607B68EF
:401A8000002B11D00B20FFF741FE094B7A681A60084B3A681A60084B00221A60074B00221A600B20FFF71CFEBD4602B080BDC046AC010020B4010020A00100209C0100206B
:401AC00080B582B000AF786039607B68002B0ED00B20FFF71BFE074B7A681A60064B3A681A60064B00221A600B20FFF7F9FDBD4602B080BDB0010020A4010020A8010020C9
:401B000080B500AF00F060F8BD4680BD80B500AF054B054A1268802109060A431A6000F023F8BD4680BDC0460000074080B500AF064B1B78002B04D1FFF7E2FF034B01221D
:401B40001A70FFF7E3FFBD4680BDC0469401002080B582B000AF7860024B7A681A60BD4602B080BD9801002080B500AF0B20FFF7B7FDBD4680BDC04680B500AF0E4B1A6808
:401B800080235B00134012D00C4B1A688023DB0113400CD1084B084A1168094A0A401A60054B054A1268802149000A431A60054B02221A60BD4680BD00000740600007404F
:401BC000FFFEFFFF6C00074080B500AF254B254A12680C210A431A60234B00221A60234B234A1A60234B244A1A60244B00221A60234B244A1A60244B1F4A1A60234B00220E
:401C00001A600B20FFF782FD0B200321FFF714FD1F4B0B20191CFFF7E9FC1E4B00221A601D4B00221A601D4B4C22FF321A601C4B00221A601B4B00221A601B4B00221A60FE
:401C40001A4B10221A701A4B00221A70194B00221A60194B00221A60184B00221A70BD4680BDC0467000074000000740600007407708004000030740070100800403074059
:401C8000100307401000FE000002074004020740C11C0000C80E0740880E0740480F0740080F0740C80F0740880F0740BA010020B8010020A0010020A8010020B90100203F
:401CC00080B582B000AF00233B60DA4B1B68002B02D0D84B1B689847D74B1A680123134002D0D64B00221A60D54B1B78DAB220231340DBB2002B32D1D24B1A680223FF33B6
:401D000013402CD0CE4B1B78DAB201231340DBB2002B10D0CC4B1B78DBB202229343DAB2C94B1A70C84B1B78DBB209221343DAB2C54B1A7010E0C44B1B78DBB220229343A1
:401D4000DAB2C14B1A70C04B1B78DBB2702252421343DAB2BC4B1A70B94B00221A70B84B1B78DAB220231340DBB2002B00D00DE2B34B1B78DAB210231340DBB2002B00D172
:401D8000D6E1B04B1A680223134056D0AF4B02221A60AF4B1A680F231A40AD4B196880231B020B4001D0012300E00023D3187B60A84B1B78DBB21A1C7B689A4208D9A24B99
:401DC0001B78DBB204221343DAB29F4B1A700AE0A04B1B78DBB21A1C7B68D21A9E4B1B68D2189D4B1A609C4B1A689C4B1A609C4B00221A60974B00221A709A4B994A126878
:401E0000802149020A431A60964B964A1168964A0A401A608C4B1B78DBB202229343DAB2894B1A70884B1B78DBB201221343DAB2854B1A70824B10221A70824B1A680823E1
:401E4000134048D0814B08221A60884B1A6880239B01134019D00DE0854B1A68854B1B68D218854B1B68DBB21370824B1B685A1C804B1A60814B1A680F231340ECD17B4B77
:401E80007A4A11687E4A0A401A607E4B1A682023134007D06C4B1B78DBB240221343DAB2694B1A70784B00221A60764B774A1A60654B1B78DBB220229343DAB2624B1A7042
:401EC000614B1B78DBB210221343DAB25E4B1A705B4B10221A705B4B1A68402313404DD06B4B1A681023134012D05D4B10221A605A4B1A68584B1A60534B1B78DBB2022258
:401F00001343DAB2504B1A704D4B12221A702CE0604B1A68574B1B68D31A7B607B68072B03D8594B04221A6014E07B68082B07D14E4B4E4A1268A02109020A431A6009E0E1
:401F40004A4B4A4A1268802189010A431A604E4B08221A603C4B1B78DBB220221343DAB2394B1A70364B11221A704B4B01221A60364B4A4A1A604A4B01221A60494B1A686E
:401F80000823134036D0434B1A683A4B1B68D31A083B7B607B68082B04D908237B6000233B6013E001233B6010E0314B1A68314B1B68D218304B1B68DBB213702D4B1B6831
:401FC0005A1C2C4B1A607B68013B7B607B68002BEBD13B68002B09D0244B244A1268802109020A431A60284B00221A60254B08221A6066E02B4B1A680423134061D01E4BD0
:402000001B687B601B4B1A68224B1B689A424BD2234B01221A60164B1A68164B1B68D3187A68D2B21A70134B1B685A1C114B1A6044E0C046980100208C0E0740880E0740F6
:40204000BA0100204C0F0740B8010020400F074008020740B90100209C010020A0010020880F074004020740FFFFFEFF60000740B0010020A8010020400307400803074088
:40208000FF5FFFFFC00F0740C80F0740ED0F000064000740A4010020800E0740FF0F00006C000740CC0F0740FFF766FD394B1B78DBB240221343DAB2364B1A70364B042279
:4020C0001A60364B1A68102313405FD026E0344B1A68344B1B689A420ED2334B334A11682F4A12688A181278D2B21A602C4B1B685A1C2B4B1A6011E02B4BFF221A602C4B7F
:402100001B78DAB220231340DBB2002B06D1284B1B78DBB20133DAB2254B1A70254B1A680F231340082BD2D1234B10221A602DE0224B224A1268520052081A60204B102284
:402140001A70204B1F4A11681F4A0A401A601D4B1C4A11681D4A0A401A601D4B00221A601C4B00221A60144B1B4A1A600A4B1B4A1A601B4B1B4A1A601B4B1C4A1A600F4B8B
:402180000E4A1268802109060A431A60BD4602B080BDC046B8010020C00F07408C0F07409C010020B401002040020740AC010020B901002008020740800F074000000740DD
:4021C000BA01002060000740FF5FFFFFFFFCFFFFC80F0740880F0740ED0F0000F3070000400F0740FF0F0000000F07401703000070B50E4B0E4D0024ED1AAD101E1CAC4219
:4022000004D0A300F35898470134F8E700F066F8084B094D0024ED1AAD101E1CAC4204D0A300F35898470134F8E770BDE8220000E8220000E8220000F022000010B50023E8
:40224000934203D0CC5CC4540133F9E710BD031C8218934202D019700133FAE7704700000500000030230000000000000400000000300F40000400400F4000049311C804FE
:40228000111E0101BA080000FE080000F00D0000140A0000E60B0000F00D0000FE0B0000760C0000140A0000F80C0000D80D0000DE100000E60F0000021000001E10000067
:4022C000321000004E1000006A1000009A10000086100000AE100000C2100000F8B5C046F8BC08BC9E4670476902000055030000F8B5C046F8BC08BC9E4670474102000062
:4023000010230000D000002020000000D000000000000000C0F1FF0F60220000642200000048E801007D0000200000000000803E0000000000000000000000000000000037
:40234000000000000000000000000000000000000000000000000000000000000000000000000000000000000000000000000000000000000000000000000000000000005D
:402380000010002091230000A1260000A126000080B500AF024B83F3088800F085F9C0460010002080B584B000AF021CFB1D1A70204A3B1C0B3312781A701F4A3B1C0A33E8
:4023C00012781A700423013BFB6018E01B4B1868391C0B31FA68131C5B009B18C3185B780B70164B1868391C0A31FA68131C5B009B18C3189B780B70FB68013BFB60FB68FE
:40240000002B0ADB0D4B1968FA68131C5B009B185B5CFA1D12789A42D8D9094B3A1C0B3212781A60074B3A1C0A3212781A60BD4604B080BDCCF1FF0FCDF1FF0FD4000020DD
:402440001CFF0B4020FF0B4080B500AF164B164A12688021C9020A431A601820FFF7A2FF124B19221A60052000F0AAFA104B114A1278D2B21A60052000F0B6FA0A4B0A4AF4
:4024800011680D4A0A401A600C4B0D4A1A600D4B10221A600C4B802212061A600B4B0C4A1A60BD4680BDC04600010B402CFF0B4028FF0B40E5F1FF0FFFFFFBFF04010B4005
:4024C000060000800C02024008010B40000002400C00008080B582B000AF72B6FB1D00221A7023E0FB1D1A78131C5B009B185B00304A9B183B603B681A78597809020A4377
:40250000997809040A43DB781B0613431A1C3B6819795B791B020B439BB2101C191C00F049F9FB1D1A78FB1D01321A70FB1D1B78012BD7D9204B992212041A601F4BEE22A6
:4025400012021A601E4B20221A601E4BC42292021A601D4B20221A601C4BD82212011A601B4B992212041A601A4B992212041A60194B194A1278D2B202210A43D2B21A7085
:40258000164B164A1278D2B23C218A43D2B214210A43D2B21A70104B0F4A1278D2B216210A43D2B21A70FFF74FFF00F013F9BD4602B080BDA02B0000000001400C0001402F
:4025C0000000044008000440180004400803044000500F4030500F4000700F4001700F4010B5064C2378002B07D1054B002B02D0044800E000BF0123237010BDE80000203A
:40260000000000006C2A000008B5084B002B03D00748084900E000BF07480368002B03D0064B002B00D0984708BDC046000000006C2A0000EC000020D00000200000000077
:4026400080B582B000AF00F0DFF8104B181C00F09DF90F4B181C00F099F90E4B181C00F095F90D4B181C00F091F90C4B181C00F08DF900F069F9031C7B607B68002B04D018
:402680007B68181C00F0F6F8F3E7F2E7702A0000C82A0000FC2A0000542B0000982B000080B500AFFEE7C04680B586B000AF224B7B61224B3B61204B7B6135E03B691B68C0
:4026C000FB603B695B68BB603B699B683B6000237B600CE0FB681A68BB681A60BB680433BB60FB680433FB607B6804337B607A683B689A42EED13B69DB683B6000237B6050
:4027000008E0BB6800221A60BB680433BB607B6804337B607A683B689A42F2D13B6910333B617B69013B7B617B69002BC6D100F06FF9FFF785FFFEE701000000D02B00008C
:4027400080B582B000AF00237B600FE07B68032B04D8134B7A689200D35800E0114B124A796889008B507B6801337B607B682F2BECD9FFF7AFFE0D4B00221A600C4B1B682A
:40278000002B02D10A4B00221A608023DB058022D205126801210A431A60BD4602B080BD80230000A126000000000020C8000020C000002080B582B000AF786039607A681E
:4027C0003B68101C00211A1C00F048F9BD4602B080BDC04680B500AFBD4680BD80B500AF00F05EF8BD4680BD80B500AF054B054A1268802109060A431A6000F017F8BD4686
:4028000080BDC0460000074080B500AF064B1B78002B04D1FFF7E2FF034B01221A70FFF7E3FFBD4680BDC0460401002080B500AFBD4680BD80B582B000AF00237B60044BAA
:402840001B687B607B68181CBD4602B080BDC0464003074080B582B000AF054B1A680F2313407B607B68181CBD4602B080BDC0460803074080B582B000AF7860C046064B73
:402880001A680F231340082BF9D0044B7A681A60BD4602B080BDC046080207404002074080B500AF174B184A1A60184B00221A60174B01221A60174B174A1A60174B0722B0
:4028C0001A60174B00221A60164B01221A60164B114A1A60154B00221A60154B00221A60144B00221A60144B00221A60134B00221A60134B00221A60124B00221A60BD464E
:4029000080BDC046000007400F000002400007404800074000030740070000800403074010030740440007400002074004020740880E0740C80E0740480F0740080F074056
:40294000C80F0740880F074080B582B000AF00237B60FFF77FFF031C002B03D0FFF76AFF031C7B60084B1A68D8239B00134005D000237B60044BD82292001A607B68181C60
:40298000BD4602B080BDC046C00F074080B584B000AF78600023FB6009E07A68FB68D3181B78181CFFF766FFFB680133FB607A68FB68D3181B78002BEFD1BD4604B080BDCC
:4029C0000230800804D0C0460138FDD1C046C046C0467047EFF3108072B6704780F310887047C046C046C04680B582B000AF021CBB1D1A80BB1D1B88044A12785343181C8B
:402A0000FFF7DEFFBD4602B080BDC046E000002070B50E4B0E4D0024ED1AAD101E1CAC4204D0A300F35898470134F8E700F0BEF8084B094D0024ED1AAD101E1CAC4204D0FA
:402A4000A300F35898470134F8E770BDB82B0000B82B0000B82B0000C02B0000031C8218934202D019700133FAE77047000000000D0A2A2A2A2A2A2A2A2A2A2A2A2A2A2A9C
:402A80002A2A2A2A2A2A2A2A2A2A2A2A2A2A2A2A2A2A2A2A2A2A2A2A2A2A2A2A2A2A2A2A2A2A2A2A2A2A2A2A2A2A2A2A2A2A2A2A2A2A2A2A2A2A2A2A2A2A2A2A2A2A2A2A96
:402AC0002A2A2A2A2A0D0A0054686973206973205343425F55617274436F6D6D20646174617368656574206578616D706C652070726F6A6563740D0A000000004966207985
:402B00006F75206172652061626C6520746F20726561642074686973207465787420746865207465726D696E616C20636F6E6E656374696F6E20697320636F6E66696775F5
:402B400072656420636F72726563746C792E0D0A000000005374617274207472616E736D697474696E6720746865206368617261637465727320746F2073656520616E207C
:402B80006563686F20696E20746865207465726D696E616C2E0D0A000D0A00000400000000300F40000400400F400004F8B5C046F8BC08BC9E4670470926000041270000CF
:402BC000F8B5C046F8BC08BC9E467047E1250000E02B0000D0000020180000002800000000000000C0F1FF0F00366E01C05D0000180000000000E02E000000000000000027
:402C00000000000000000000000000000000000000000000000000000000000000000000000000000000000000000000000000000000000000000000000000000000000094
:402C40000000000000000000000000000000000000000000000000000000000000000000000000000000000000000000000000000000000000000000000000000000000054
:402C80000000000000000000000000000000000000000000000000000000000000000000000000000000000000000000000000000000000000000000000000000000000014
:402CC00000000000000000000000000000000000000000000000000000000000000000000000000000000000000000000000000000000000000000000000000000000000D4
:407FC000F691230000460000008008000000000000000000000000000000000000000000000000000000000000000000000000000000000000000000000000000000000009
:0200000490303A
:02000000D92EF7
:0200000490402A
:200000000000000000000000000000000000000000000000000000000000000000000000E0
:0200000490501A
:0C000000000204C81193110104D5EAC1EC
:0200000490600A
:0100000001FE
:00000001FF