:400000000010002011000000150300001503000080B500AF00F082F980B584B000AF021CFB1D1A70204A3B1C0B3312781A701F4A3B1C0A3312781A700423013BFB6018E04E
:400040001B4B1868391C0B31FA68131C5B009B18C3185B780B70164B1868391C0A31FA68131C5B009B18C3189B780B70FB68013BFB60FB68002B0ADB0D4B1968FA68131CF1
:400080005B009B185B5CFA1D12789A42D8D9094B3A1C0B3212781A60074B3A1C0A3212781A60BD4604B080BDCCF1FF0FCDF1FF0FCC0000201CFF0B4020FF0B4080B500AF4F
:4000C000164B164A12688021C9020A431A601820FFF7A2FF124B19221A60052000F0A4FA104B114A1278D2B21A60052000F0B0FA0A4B0A4A11680D4A0A401A600C4B0D4A16
:400100001A600D4B10221A600C4B802212061A600B4B0C4A1A60BD4680BDC04600010B402CFF0B4028FF0B40E5F1FF0FFFFFFBFF04010B40060000800C02024008010B40C0
:40014000000002400C00008080B582B000AF72B6FB1D00221A7023E0FB1D1A78131C5B009B185B00304A9B183B603B681A78597809020A43997809040A43DB781B0613430F
:400180001A1C3B6819795B791B020B439BB2101C191C00F041F9FB1D1A78FB1D01321A70FB1D1B78012BD7D9204B992212041A601F4BEE2212021A601E4B20221A601E4B6B
:4001C000C42292021A601D4B20221A601C4BD82212011A601B4B992212041A601A4B992212041A60194B194A1278D2B202210A43D2B21A70164B164A1278D2B23C218A434C
:40020000D2B214210A43D2B21A70104B0F4A1278D2B216210A43D2B21A70FFF74FFF00F00BF9BD4602B080BD08080000000001400C000140000004400800044018000440A2
:400240000803044000500F4030500F4000700F4001700F4010B5064C2378002B07D1054B002B02D0044800E000BF0123237010BDE000002000000000D406000008B5084BE7
:40028000002B03D00748084900E000BF07480368002B03D0064B002B00D0984708BDC04600000000D4060000E4000020C80000200000000080B582B000AF00F0D7F8104B5D
:4002C000181C00F095F90F4B181C00F091F90E4B181C00F08DF90D4B181C00F089F90C4B181C00F085F900F061F9031C7B607B68002B04D07B68181C00F0EEF8F3E7F2E784
:40030000D80600003007000064070000BC0700000008000080B500AFFEE7C04680B586B000AF224B7B61224B3B61204B7B6135E03B691B68FB603B695B68BB603B699B6830
:400340003B6000237B600CE0FB681A68BB681A60BB680433BB60FB680433FB607B6804337B607A683B689A42EED13B69DB683B6000237B6008E0BB6800221A60BB68043376
:40038000BB607B6804337B607A683B689A42F2D13B6910333B617B69013B7B617B69002BC6D100F069F9FFF785FFFEE7010000003808000080B582B000AF00237B600FE0EF
:4003C0007B68032B04D8104B7A689200D35800E00E4B0F4A796889008B507B6801337B607B682F2BECD9FFF7AFFE0A4B00221A608023DB058022D205126801210A431A6058
:40040000BD4602B080BDC046000000001503000000000020C000002080B582B000AF786039607A683B68101C00211A1C00F04AF9BD4602B080BDC04680B500AFBD4680BDCE
:4004400080B500AF00F05EF8BD4680BD80B500AF054B054A1268802109060A431A6000F017F8BD4680BDC0460000074080B500AF064B1B78002B04D1FFF7E2FF034B012202
:400480001A70FFF7E3FFBD4680BDC046FC00002080B500AFBD4680BD80B582B000AF00237B60044B1B687B607B68181CBD4602B080BDC0464003074080B582B000AF054B94
:4004C0001A680F2313407B607B68181CBD4602B080BDC0460803074080B582B000AF7860C046064B1A680F231340082BF9D0044B7A681A60BD4602B080BDC046080207407D
:400500004002074080B500AF174B184A1A60184B00221A60174B01221A60174B174A1A60174B07221A60174B00221A60164B01221A60164B114A1A60154B00221A60154B42
:4005400000221A60144B00221A60144B00221A60134B00221A60134B00221A60124B00221A60BD4680BDC046000007400F0000024000074048000740000307400700008077
:400580000403074010030740440007400002074004020740880E0740C80E0740480F0740080F0740C80F0740880F074080B582B000AF00237B60FFF77FFF031C002B03D0DB
:4005C000FFF76AFF031C7B60084B1A68D8239B00134005D000237B60044BD82292001A607B68181CBD4602B080BDC046C00F074080B584B000AF78600023FB6009E07A685E
:40060000FB68D3181B78181CFFF766FFFB680133FB607A68FB68D3181B78002BEFD1BD4604B080BD000000000230800804D0C0460138FDD1C046C046C0467047EFF31080E0
:4006400072B6704780F310887047C046C046C04680B582B000AF021CBB1D1A80BB1D1B88044A12785343181CFFF7DEFFBD4602B080BDC046D800002070B50E4B0E4D002444
:40068000ED1AAD101E1CAC4204D0A300F35898470134F8E700F0BEF8084B094D0024ED1AAD101E1CAC4204D0A300F35898470134F8E770BD200800002008000020080000E0
:4006C00028080000031C8218934202D019700133FAE77047000000000D0A2A2A2A2A2A2A2A2A2A2A2A2A2A2A2A2A2A2A2A2A2A2A2A2A2A2A2A2A2A2A2A2A2A2A2A2A2A2AC2
:400700002A2A2A2A2A2A2A2A2A2A2A2A2A2A2A2A2A2A2A2A2A2A2A2A2A2A2A2A2A2A2A2A2A2A2A2A2A2A2A2A2A2A2A2A2A0D0A0054686973206973205343425F55617274B9
:40074000436F6D6D20646174617368656574206578616D706C652070726F6A6563740D0A00000000496620796F75206172652061626C6520746F2072656164207468697311
:40078000207465787420746865207465726D696E616C20636F6E6E656374696F6E20697320636F6E6669677572656420636F72726563746C792E0D0A00000000537461720F
:4007C00074207472616E736D697474696E6720746865206368617261637465727320746F2073656520616E206563686F20696E20746865207465726D696E616C2E0D0A0079
:400800000D0A00000400000000300F40000400400F400004F8B5C046F8BC08BC9E4670477D020000B5030000F8B5C046F8BC08BC9E4670475502000048080000C800002035
:40084000180000002800000000000000C0F1FF0F00366E01C05D0000180000000000E02E000000000000000000000000000000000000000000000000000000000000000091
:400880000000000000000000000000000000000000000000000000000000000000000000000000000000000000000000000000000000000000000000000000000000000038
:4008C00000000000000000000000000000000000000000000000000000000000000000000000000000000000000000000000000000000000000000000000000000000000F8
:4009000000000000000000000000000000000000000000000000000000000000000000000000000000000000000000000000000000000000000000000000000000000000B7
:400940000000000000000000000000000000000000000000000000000000000000000000000000000000000000000000000000000000000000000000000000000000000077
:0200000490303A
:02000000A78EC9
:0200000490402A
:200000000000000000000000000000000000000000000000000000000000000000000000E0
:0200000490501A
:0C000000000204C81193110104CAB921C8
:0200000490600A
:0100000001FE
:00000001FF